{
  "contractName": "Voting",
  "abi": [
    {
      "inputs": [],
      "stateMutability": "nonpayable",
      "type": "constructor"
    },
    {
      "anonymous": false,
      "inputs": [
        {
          "indexed": false,
          "internalType": "uint256",
          "name": "from",
          "type": "uint256"
        },
        {
          "indexed": false,
          "internalType": "string",
          "name": "to",
          "type": "string"
        }
      ],
      "name": "voteTransfered",
      "type": "event"
    },
    {
      "inputs": [
        {
          "internalType": "uint256",
          "name": "_name",
          "type": "uint256"
        }
      ],
      "name": "voteJay_0",
      "outputs": [],
      "stateMutability": "nonpayable",
      "type": "function"
    },
    {
      "inputs": [
        {
          "internalType": "uint256",
          "name": "_name",
          "type": "uint256"
        }
      ],
      "name": "voteJay_1",
      "outputs": [],
      "stateMutability": "nonpayable",
      "type": "function"
    },
    {
      "inputs": [
        {
          "internalType": "uint256",
          "name": "_name",
          "type": "uint256"
        }
      ],
      "name": "voteJay_2",
      "outputs": [],
      "stateMutability": "nonpayable",
      "type": "function"
    },
    {
      "inputs": [],
      "name": "votesOfJay_0",
      "outputs": [
        {
          "internalType": "uint256",
          "name": "",
          "type": "uint256"
        }
      ],
      "stateMutability": "view",
      "type": "function"
    },
    {
      "inputs": [],
      "name": "votesOfJay_1",
      "outputs": [
        {
          "internalType": "uint256",
          "name": "",
          "type": "uint256"
        }
      ],
      "stateMutability": "view",
      "type": "function"
    },
    {
      "inputs": [],
      "name": "votesOfJay_2",
      "outputs": [
        {
          "internalType": "uint256",
          "name": "",
          "type": "uint256"
        }
      ],
      "stateMutability": "view",
      "type": "function"
    },
    {
      "inputs": [
        {
          "internalType": "uint256",
          "name": "_name",
          "type": "uint256"
        }
      ],
      "name": "checkVote",
      "outputs": [
        {
          "internalType": "bool",
          "name": "",
          "type": "bool"
        }
      ],
      "stateMutability": "view",
      "type": "function"
    },
    {
      "inputs": [
        {
          "internalType": "uint256",
          "name": "_name",
          "type": "uint256"
        }
      ],
      "name": "optedCandidate",
      "outputs": [
        {
          "internalType": "string",
          "name": "",
          "type": "string"
        }
      ],
      "stateMutability": "view",
      "type": "function"
    }
  ],
  "bytecode": "0x608060405234801561001057600080fd5b5060405180604001604052806040518060400160405280600581526020017f6a61795f30000000000000000000000000000000000000000000000000000000815250815260200160008152506002600082015181600001908051906020019061007a92919061017b565b506020820151816001015590505060405180604001604052806040518060400160405280600581526020017f6a61795f3100000000000000000000000000000000000000000000000000000081525081526020016000815250600460008201518160000190805190602001906100f192919061017b565b506020820151816001015590505060405180604001604052806040518060400160405280600581526020017f6a61795f32000000000000000000000000000000000000000000000000000000815250815260200160008152506006600082015181600001908051906020019061016892919061017b565b5060208201518160010155905050610220565b828054600181600116156101000203166002900490600052602060002090601f016020900481019282601f106101bc57805160ff19168380011785556101ea565b828001600101855582156101ea579182015b828111156101e95782518255916020019190600101906101ce565b5b5090506101f791906101fb565b5090565b61021d91905b80821115610219576000816000905550600101610201565b5090565b90565b6109418061022f6000396000f3fe608060405234801561001057600080fd5b50600436106100885760003560e01c8063ae5193a31161005b578063ae5193a314610125578063b6ee22de14610143578063d7452795146101ea578063e2f63deb1461021857610088565b80634138c0e71461008d57806343a64e2f146100bb5780638493ba5c146100d95780639ab71d7e146100f7575b600080fd5b6100b9600480360360208110156100a357600080fd5b810190808035906020019092919050505061025e565b005b6100c36103f8565b6040518082815260200191505060405180910390f35b6100e1610405565b6040518082815260200191505060405180910390f35b6101236004803603602081101561010d57600080fd5b8101908080359060200190929190505050610412565b005b61012d6105ac565b6040518082815260200191505060405180910390f35b61016f6004803603602081101561015957600080fd5b81019080803590602001909291905050506105b9565b6040518080602001828103825283818151815260200191508051906020019080838360005b838110156101af578082015181840152602081019050610194565b50505050905090810190601f1680156101dc5780820380516001836020036101000a031916815260200191505b509250505060405180910390f35b6102166004803603602081101561020057600080fd5b810190808035906020019092919050505061066e565b005b6102446004803603602081101561022e57600080fd5b8101908080359060200190929190505050610808565b604051808215151515815260200191505060405180910390f35b61026781610808565b156102da576040517f08c379a000000000000000000000000000000000000000000000000000000000815260040180806020018281038252600e8152602001807f416c726561647920566f7465642100000000000000000000000000000000000081525060200191505060405180910390fd5b6102e381610831565b600260000160016000838152602001908152602001600020908054600181600116156101000203166002900461031a92919061085f565b506002600101600081548092919060010191905055507ff8fc108801145b4e41ee7ae14b9a721ccb511108f42a6a5ce7e1094e631a7a2d81600260000160405180838152602001806020018281038252838181546001816001161561010002031660029004815260200191508054600181600116156101000203166002900480156103e65780601f106103bb576101008083540402835291602001916103e6565b820191906000526020600020905b8154815290600101906020018083116103c957829003601f168201915b5050935050505060405180910390a150565b6000600460010154905090565b6000600660010154905090565b61041b81610808565b1561048e576040517f08c379a000000000000000000000000000000000000000000000000000000000815260040180806020018281038252600e8152602001807f416c726561647920566f7465642100000000000000000000000000000000000081525060200191505060405180910390fd5b61049781610831565b60046000016001600083815260200190815260200160002090805460018160011615610100020316600290046104ce92919061085f565b506004600101600081548092919060010191905055507ff8fc108801145b4e41ee7ae14b9a721ccb511108f42a6a5ce7e1094e631a7a2d816004600001604051808381526020018060200182810382528381815460018160011615610100020316600290048152602001915080546001816001161561010002031660029004801561059a5780601f1061056f5761010080835404028352916020019161059a565b820191906000526020600020905b81548152906001019060200180831161057d57829003601f168201915b5050935050505060405180910390a150565b6000600260010154905090565b6060600160008381526020019081526020016000208054600181600116156101000203166002900480601f0160208091040260200160405190810160405280929190818152602001828054600181600116156101000203166002900480156106625780601f1061063757610100808354040283529160200191610662565b820191906000526020600020905b81548152906001019060200180831161064557829003601f168201915b50505050509050919050565b61067781610808565b156106ea576040517f08c379a000000000000000000000000000000000000000000000000000000000815260040180806020018281038252600e8152602001807f416c726561647920566f7465642100000000000000000000000000000000000081525060200191505060405180910390fd5b6106f381610831565b600660000160016000838152602001908152602001600020908054600181600116156101000203166002900461072a92919061085f565b506006600101600081548092919060010191905055507ff8fc108801145b4e41ee7ae14b9a721ccb511108f42a6a5ce7e1094e631a7a2d81600660000160405180838152602001806020018281038252838181546001816001161561010002031660029004815260200191508054600181600116156101000203166002900480156107f65780601f106107cb576101008083540402835291602001916107f6565b820191906000526020600020905b8154815290600101906020018083116107d957829003601f168201915b5050935050505060405180910390a150565b600080600083815260200190815260200160002060009054906101000a900460ff169050919050565b600160008083815260200190815260200160002060006101000a81548160ff02191690831515021790555050565b828054600181600116156101000203166002900490600052602060002090601f016020900481019282601f1061089857805485556108d5565b828001600101855582156108d557600052602060002091601f016020900482015b828111156108d45782548255916001019190600101906108b9565b5b5090506108e291906108e6565b5090565b61090891905b808211156109045760008160009055506001016108ec565b5090565b9056fea264697066735822122091be3ed95357be1a739a35c5f9bd29e71c4f2cac57a2ee690c89521676a1bcdf64736f6c63430006090033",
  "immutableReferences": {},
  "source": "// SPDX-License-Identifier: MIT\r\npragma solidity ^0.6.0;\r\n\r\ncontract Voting {\r\n    \r\n    \r\n    mapping( uint => bool) voted;\r\n    mapping( uint => string) votedTo;\r\n    \r\n    event voteTransfered(uint from, string to);\r\n    \r\n    struct Candidate{\r\n        string name;\r\n        uint256 no_of_votes;\r\n    }\r\n    \r\n    Candidate c0;\r\n    Candidate c1;\r\n    Candidate c2;\r\n    \r\n    constructor() public {\r\n        c0 = Candidate(\"jay_0\", 0);\r\n        c1 = Candidate(\"jay_1\", 0);\r\n        c2 = Candidate(\"jay_2\", 0);\r\n    }\r\n    \r\n    function voteJay_0(uint _name) public{\r\n        require(!checkVote(_name), \"Already Voted!\");\r\n        casteVote(_name);\r\n        votedTo[_name] = c0.name;\r\n        c0.no_of_votes++;\r\n        emit voteTransfered(_name, c0.name);\r\n    }\r\n    function voteJay_1( uint _name) public{\r\n        require(!checkVote(_name), \"Already Voted!\");\r\n        casteVote(_name);\r\n        votedTo[_name] = c1.name;\r\n        c1.no_of_votes++;\r\n        emit voteTransfered(_name, c1.name);\r\n    }\r\n    function voteJay_2( uint _name) public{\r\n        require(!checkVote(_name), \"Already Voted!\");\r\n        casteVote(_name);\r\n        votedTo[_name] = c2.name;\r\n        c2.no_of_votes++;\r\n        emit voteTransfered(_name, c2.name);\r\n    }\r\n    \r\n    \r\n    \r\n    function votesOfJay_0() public view returns(uint)  {\r\n        return c0.no_of_votes;\r\n    }\r\n    function votesOfJay_1() public view returns(uint)  {\r\n        return c1.no_of_votes;\r\n    }\r\n    function votesOfJay_2() public view returns(uint)  {\r\n        return c2.no_of_votes;\r\n    }\r\n    \r\n    \r\n    \r\n    function casteVote( uint _name) internal{\r\n        voted[_name] = true;\r\n    }\r\n    function checkVote( uint _name) public view returns(bool) {\r\n        return voted[_name];\r\n    }\r\n    function optedCandidate( uint _name) public view returns(string memory) {\r\n        return votedTo[_name];\r\n    }\r\n}",
  "sourcePath": "E:\\EthereumProjects\\VotingProject\\contracts\\Voting.sol",
  "compiler": {
    "name": "solc",
    "version": "0.6.9+commit.3e3065ac.Emscripten.clang"
  },
  "schemaVersion": "3.2.2",
  "updatedAt": "2020-07-23T17:20:40.621Z",
  "devdoc": {
    "methods": {}
  },
  "userdoc": {
    "methods": {}
  }
}